:02000000011DE0
:02000B000141B1
:10001B0001727530017589117531147A057B05757F
:10002B008C3C758AB0758DD8758BF075A88AD28C7F
:10003B00D28E11E880FC758C3C758AB0DB04B2D58E
:10004B007B05D531217531140526E526B43C177592
:10005B0026000527E527B43C0D7527000528E52864
:10006B00B4180375280032758DD8758BF0DA047AC5
:10007B0005117F3230900B30911630923930935CF2
:10008B0001E77A140530E530B4045175300101E70E
:10009B007B05C2D57A14E530C3B4020C0528E528DC
:1000AB00B41839752800803440320527E527B43C55
:1000BB002B75270080267B14C2D57A14E530C3B488
:1000CB00020C1528E528B4FF1375281701E7400C1F
:1000DB001527E527B4FF0575273B800022E526751C
:1000EB00F00A8485F040F541E53030E10E30E00B4D
:1000FB0030D50875430A75440A2124E52775F00AA3
:10010B008485F043F544E53030E10E20E00B30D52B
:10011B000875460A75470A2135E52875F00A848566
:10012B00F046F54775420B75450BA9FF89A07C0876
:10013B007840E6315CF580315108DCF6227F027E97
:10014B0028DEFEDFFA2289A031481975800089A0CC
:10015B002290016193223F065B4F666D7D077F6F97
:02016B00004052
:00000001FF
